{
  "contractName": "LibraryDemo",
  "abi": [
    {
      "constant": true,
      "inputs": [
        {
          "name": "_a",
          "type": "uint256"
        },
        {
          "name": "_b",
          "type": "uint256"
        }
      ],
      "name": "multiply",
      "outputs": [
        {
          "name": "",
          "type": "uint256"
        }
      ],
      "payable": false,
      "stateMutability": "pure",
      "type": "function"
    }
  ],
  "bytecode": "0x608060405234801561001057600080fd5b50610185806100206000396000f3fe608060405260043610610041576000357c0100000000000000000000000000000000000000000000000000000000900463ffffffff168063165c4a1614610046575b600080fd5b34801561005257600080fd5b506100896004803603604081101561006957600080fd5b81019080803590602001909291908035906020019092919050505061009f565b6040518082815260200191505060405180910390f35b60008273__MathLibrary___________________________639aa727f69091846040518363ffffffff167c0100000000000000000000000000000000000000000000000000000000028152600401808381526020018281526020019250505060206040518083038186803b15801561011657600080fd5b505af415801561012a573d6000803e3d6000fd5b505050506040513d602081101561014057600080fd5b810190808051906020019092919050505090509291505056fea165627a7a723058209fdc3389944e34e30d163a274b093673fc646b3be7f586c5c883d148417d53100029",
  "source": "pragma solidity ^0.5.0;\n\nlibrary MathLibrary {\n    function mult(uint256 a, uint256 b) public pure returns (uint256) {\n        return a * b;\n    }\n}\n\ncontract LibraryDemo {\n    using MathLibrary for uint256;\n\n    function multiply(uint256 _a, uint256 _b) public pure returns (uint256) {\n        return _a.mult(_b);\n    }\n}\n",
  "sourcePath": "C:/Users/Think/Desktop/demo/PrivateStamp-master/PrivateStamp-master/contracts/LibraryDemo.sol",
  "compiler": {
    "name": "solc",
    "version": "0.5.0+commit.1d4f565a.Emscripten.clang"
  },
  "schemaVersion": "3.3.3",
  "updatedAt": "2021-03-11T03:52:48.197Z",
  "devdoc": {
    "methods": {}
  },
  "userdoc": {
    "methods": {}
  }
}