{
  "contractName": "MathLibrary",
  "abi": [
    {
      "constant": true,
      "inputs": [
        {
          "name": "a",
          "type": "uint256"
        },
        {
          "name": "b",
          "type": "uint256"
        }
      ],
      "name": "mult",
      "outputs": [
        {
          "name": "",
          "type": "uint256"
        }
      ],
      "payable": false,
      "stateMutability": "pure",
      "type": "function"
    }
  ],
  "bytecode": "0x60dd61002f600b82828239805160001a6073146000811461001f57610021565bfe5b5030600052607381538281f3fe73000000000000000000000000000000000000000030146080604052600436106056576000357c0100000000000000000000000000000000000000000000000000000000900463ffffffff1680639aa727f614605b575b600080fd5b608e60048036036040811015606f57600080fd5b81019080803590602001909291908035906020019092919050505060a4565b6040518082815260200191505060405180910390f35b600081830290509291505056fea165627a7a7230582003f786e1cbc16bfef01d5a07ae9e6a27fd3bb04a28055d20b5f09f82bc8e75a80029",
  "source": "pragma solidity ^0.5.0;\n\nlibrary MathLibrary {\n    function mult(uint256 a, uint256 b) public pure returns (uint256) {\n        return a * b;\n    }\n}\n\ncontract LibraryDemo {\n    using MathLibrary for uint256;\n\n    function multiply(uint256 _a, uint256 _b) public pure returns (uint256) {\n        return _a.mult(_b);\n    }\n}\n",
  "sourcePath": "C:/Users/Think/Desktop/demo/PrivateStamp-master/PrivateStamp-master/contracts/LibraryDemo.sol",
  "compiler": {
    "name": "solc",
    "version": "0.5.0+commit.1d4f565a.Emscripten.clang"
  },
  "schemaVersion": "3.3.3",
  "updatedAt": "2021-03-11T03:52:48.205Z",
  "devdoc": {
    "methods": {}
  },
  "userdoc": {
    "methods": {}
  }
}