{
  "contractName": "ProofOfExistence",
  "abi": [
    {
      "constant": true,
      "inputs": [],
      "name": "contractStatus",
      "outputs": [
        {
          "name": "",
          "type": "bool"
        }
      ],
      "payable": false,
      "stateMutability": "view",
      "type": "function"
    },
    {
      "inputs": [],
      "payable": false,
      "stateMutability": "nonpayable",
      "type": "constructor"
    },
    {
      "anonymous": false,
      "inputs": [
        {
          "indexed": true,
          "name": "stampper",
          "type": "address"
        },
        {
          "indexed": false,
          "name": "blockNumber",
          "type": "uint256"
        },
        {
          "indexed": false,
          "name": "hash",
          "type": "string"
        }
      ],
      "name": "LogAdditionEvent",
      "type": "event"
    },
    {
      "anonymous": false,
      "inputs": [
        {
          "indexed": false,
          "name": "appVersion",
          "type": "uint256"
        }
      ],
      "name": "LogAppVersionUpdated",
      "type": "event"
    },
    {
      "anonymous": false,
      "inputs": [
        {
          "indexed": false,
          "name": "contractStatus",
          "type": "bool"
        }
      ],
      "name": "LogContractStatusUpdated",
      "type": "event"
    },
    {
      "constant": false,
      "inputs": [
        {
          "name": "hash",
          "type": "string"
        }
      ],
      "name": "storeHash",
      "outputs": [],
      "payable": false,
      "stateMutability": "nonpayable",
      "type": "function"
    },
    {
      "constant": true,
      "inputs": [
        {
          "name": "stampper",
          "type": "address"
        },
        {
          "name": "hash",
          "type": "string"
        }
      ],
      "name": "verifyHash",
      "outputs": [
        {
          "name": "",
          "type": "uint256"
        }
      ],
      "payable": false,
      "stateMutability": "view",
      "type": "function"
    },
    {
      "constant": false,
      "inputs": [
        {
          "name": "_appVersion",
          "type": "uint256"
        }
      ],
      "name": "updateAppVersion",
      "outputs": [],
      "payable": false,
      "stateMutability": "nonpayable",
      "type": "function"
    },
    {
      "constant": true,
      "inputs": [],
      "name": "getAppVersion",
      "outputs": [
        {
          "name": "",
          "type": "uint256"
        }
      ],
      "payable": false,
      "stateMutability": "view",
      "type": "function"
    },
    {
      "constant": false,
      "inputs": [
        {
          "name": "_contractStatus",
          "type": "bool"
        }
      ],
      "name": "updateContractStatus",
      "outputs": [],
      "payable": false,
      "stateMutability": "nonpayable",
      "type": "function"
    },
    {
      "constant": true,
      "inputs": [],
      "name": "getContractStatus",
      "outputs": [
        {
          "name": "",
          "type": "bool"
        }
      ],
      "payable": false,
      "stateMutability": "view",
      "type": "function"
    }
  ],
  "bytecode": "0x608060405234801561001057600080fd5b50336000806101000a81548173ffffffffffffffffffffffffffffffffffffffff021916908373ffffffffffffffffffffffffffffffffffffffff160217905550600180819055506001600260006101000a81548160ff021916908315150217905550610a3a806100826000396000f3fe608060405260043610610083576000357c0100000000000000000000000000000000000000000000000000000000900463ffffffff16806315c237f0146100885780631c557fa21461018457806371dc61cb146101c1578063a20ce51014610289578063c032846b146102b4578063c6ee20d2146102e3578063db0f050014610312575b600080fd5b34801561009457600080fd5b5061016e600480360360408110156100ab57600080fd5b81019080803573ffffffffffffffffffffffffffffffffffffffff169060200190929190803590602001906401000000008111156100e857600080fd5b8201836020820111156100fa57600080fd5b8035906020019184600183028401116401000000008311171561011c57600080fd5b91908080601f016020809104026020016040519081016040528093929190818152602001838380828437600081840152601f19601f82011690508083019250505050505050919291929050505061034d565b6040518082815260200191505060405180910390f35b34801561019057600080fd5b506101bf600480360360208110156101a757600080fd5b81019080803515159060200190929190505050610484565b005b3480156101cd57600080fd5b50610287600480360360208110156101e457600080fd5b810190808035906020019064010000000081111561020157600080fd5b82018360208201111561021357600080fd5b8035906020019184600183028401116401000000008311171561023557600080fd5b91908080601f016020809104026020016040519081016040528093929190818152602001838380828437600081840152601f19601f8201169050808301925050505050505091929192905050506105a0565b005b34801561029557600080fd5b5061029e6108d5565b6040518082815260200191505060405180910390f35b3480156102c057600080fd5b506102c96108df565b604051808215151515815260200191505060405180910390f35b3480156102ef57600080fd5b506102f86108f6565b604051808215151515815260200191505060405180910390f35b34801561031e57600080fd5b5061034b6004803603602081101561033557600080fd5b8101908080359060200190929190505050610909565b005b6000600260009054906101000a900460ff1615156103d3576040517f08c379a000000000000000000000000000000000000000000000000000000000815260040180806020018281038252601f8152602001807f54686520636f6e747261637420697320646f776e2063757272656e746c79210081525060200191505060405180910390fd5b600360008473ffffffffffffffffffffffffffffffffffffffff1673ffffffffffffffffffffffffffffffffffffffff168152602001908152602001600020826040518082805190602001908083835b6020831015156104485780518252602082019150602081019050602083039250610423565b6001836020036101000a038019825116818451168082178552505050505050905001915050908152602001604051809103902054905092915050565b6000809054906101000a900473ffffffffffffffffffffffffffffffffffffffff1673ffffffffffffffffffffffffffffffffffffffff163373ffffffffffffffffffffffffffffffffffffffff16141515610548576040517f08c379a00000000000000000000000000000000000000000000000000000000081526004018080602001828103825260168152602001807f596f75206d75737420626520746865206f776e6572210000000000000000000081525060200191505060405180910390fd5b80600260006101000a81548160ff0219169083151502179055507fe8c4583fcc8f9498bb06ec49ea53be5509aea214eade24c3b0a723f27bd55e4281604051808215151515815260200191505060405180910390a150565b600260009054906101000a900460ff161515610624576040517f08c379a000000000000000000000000000000000000000000000000000000000815260040180806020018281038252601f8152602001807f54686520636f6e747261637420697320646f776e2063757272656e746c79210081525060200191505060405180910390fd5b6000600360003373ffffffffffffffffffffffffffffffffffffffff1673ffffffffffffffffffffffffffffffffffffffff168152602001908152602001600020826040518082805190602001908083835b60208310151561069b5780518252602082019150602081019050602083039250610676565b6001836020036101000a03801982511681845116808217855250505050505090500191505090815260200160405180910390205414151561076a576040517f08c379a00000000000000000000000000000000000000000000000000000000081526004018080602001828103825260258152602001807f54686973206861736820686173206265656e2073746f7265642070726576696f81526020017f75736c792100000000000000000000000000000000000000000000000000000081525060400191505060405180910390fd5b43600360003373ffffffffffffffffffffffffffffffffffffffff1673ffffffffffffffffffffffffffffffffffffffff168152602001908152602001600020826040518082805190602001908083835b6020831015156107e057805182526020820191506020810190506020830392506107bb565b6001836020036101000a0380198251168184511680821785525050505050509050019150509081526020016040518091039020819055503373ffffffffffffffffffffffffffffffffffffffff167f9bec25e13211d0698a12c807bc1160b0d141cb675a7fce829003fc6e28b832ad43836040518083815260200180602001828103825283818151815260200191508051906020019080838360005b8381101561089757808201518184015260208101905061087c565b50505050905090810190601f1680156108c45780820380516001836020036101000a031916815260200191505b50935050505060405180910390a250565b6000600154905090565b6000600260009054906101000a900460ff16905090565b600260009054906101000a900460ff1681565b6000809054906101000a900473ffffffffffffffffffffffffffffffffffffffff1673ffffffffffffffffffffffffffffffffffffffff163373ffffffffffffffffffffffffffffffffffffffff161415156109cd576040517f08c379a00000000000000000000000000000000000000000000000000000000081526004018080602001828103825260168152602001807f596f75206d75737420626520746865206f776e6572210000000000000000000081525060200191505060405180910390fd5b806001819055507fe5d8a89bfc0aeed2cb21fb4c47f231e92f20dcf6dec4e284e2ab6fd46248cbaf816040518082815260200191505060405180910390a15056fea165627a7a72305820ba71fb13ebfdf2ef531b0f006c232e51fb62447ecc30ab602e02437d6af8380f0029",
  "source": "pragma solidity ^0.5.0;\n\n/**\n * @author Mustafa Refaey <mustafarefaey@gmail.com>\n * @dev Implementation of proof of existence contract.\n */\ncontract ProofOfExistence {\n    /// the owner of the contract\n    address owner;\n\n    /// frontend app version\n    uint256 appVersion;\n\n    /// a circuit breaker to stop the contract\n    bool public contractStatus;\n\n    /// a mapping of the hash uploaders and their hashes, stamped by the block number\n    mapping(address => mapping(string => uint256)) private hashes;\n\n    /// an event to be emitted when a new hash has been added\n    event LogAdditionEvent(\n        address indexed stampper,\n        uint256 blockNumber,\n        string hash\n    );\n\n    /// an event to be emitted when a new hash has been added\n    event LogAppVersionUpdated(uint256 appVersion);\n\n    /// an event to be emitted when the contract status is updated\n    event LogContractStatusUpdated(bool contractStatus);\n\n    /// checks if the msg.sender is the owner of the contract\n    modifier ownerOnly() {\n        require(msg.sender == owner, \"You must be the owner!\");\n        _;\n    }\n\n    /// stopInEmergency\n    modifier stopInEmergency {\n        require(contractStatus, \"The contract is down currently!\");\n        _;\n    }\n\n    constructor() public {\n        /// set the owner as the contract deployer\n        owner = msg.sender;\n\n        appVersion = 1;\n        contractStatus = true;\n    }\n\n    /// @notice Stores the hash in the contract's state\n    /// @param hash The hash to be stored\n    function storeHash(string memory hash) public stopInEmergency {\n        require(\n            hashes[msg.sender][hash] == 0,\n            \"This hash has been stored previously!\"\n        );\n\n        hashes[msg.sender][hash] = block.number;\n\n        emit LogAdditionEvent(msg.sender, block.number, hash);\n    }\n\n    /// @notice Verifies if the hash exists\n    /// @param stampper The address of the stampper\n    /// @param hash The hash to be stored\n    /// @return the block number of a hash if it exists in the contract's state\n    /// or returns 0\n    function verifyHash(address stampper, string memory hash)\n        public\n        view\n        stopInEmergency\n        returns (uint256)\n    {\n        return hashes[stampper][hash];\n    }\n\n    /// @notice Updates the frontend app version\n    /// @param _appVersion The new frontend app version\n    function updateAppVersion(uint256 _appVersion) public ownerOnly {\n        appVersion = _appVersion;\n\n        emit LogAppVersionUpdated(_appVersion);\n    }\n\n    /// @notice Retrieves the frontend app version\n    /// @return the frontend app version\n    function getAppVersion() public view returns (uint256) {\n        return appVersion;\n    }\n\n    /// @notice Enable/Disable contract functionality (a circuit breaker)\n    /// @param _contractStatus The new circuit breaker state\n    function updateContractStatus(bool _contractStatus) public ownerOnly {\n        contractStatus = _contractStatus;\n\n        emit LogContractStatusUpdated(_contractStatus);\n    }\n\n    /// @notice Retrieves the contract status\n    /// @return the contract status\n    function getContractStatus() public view returns (bool) {\n        return contractStatus;\n    }\n}\n",
  "sourcePath": "C:/Users/Think/Desktop/demo/PrivateStamp-master/PrivateStamp-master/contracts/ProofOfExistence.sol",
  "compiler": {
    "name": "solc",
    "version": "0.5.0+commit.1d4f565a.Emscripten.clang"
  },
  "schemaVersion": "3.3.3",
  "updatedAt": "2021-03-11T03:53:43.461Z",
  "networkType": "ethereum",
  "devdoc": {
    "author": "Mustafa Refaey <mustafarefaey@gmail.com>",
    "details": "Implementation of proof of existence contract.",
    "methods": {
      "getAppVersion()": {
        "return": "the frontend app version"
      },
      "getContractStatus()": {
        "return": "the contract status"
      },
      "storeHash(string)": {
        "params": {
          "hash": "The hash to be stored"
        }
      },
      "updateAppVersion(uint256)": {
        "params": {
          "_appVersion": "The new frontend app version"
        }
      },
      "updateContractStatus(bool)": {
        "params": {
          "_contractStatus": "The new circuit breaker state"
        }
      },
      "verifyHash(address,string)": {
        "params": {
          "hash": "The hash to be stored",
          "stampper": "The address of the stampper"
        },
        "return": "the block number of a hash if it exists in the contract's state or returns 0"
      }
    }
  },
  "userdoc": {
    "methods": {
      "getAppVersion()": {
        "notice": "Retrieves the frontend app version"
      },
      "getContractStatus()": {
        "notice": "Retrieves the contract status"
      },
      "storeHash(string)": {
        "notice": "Stores the hash in the contract's state"
      },
      "updateAppVersion(uint256)": {
        "notice": "Updates the frontend app version"
      },
      "updateContractStatus(bool)": {
        "notice": "Enable/Disable contract functionality (a circuit breaker)"
      },
      "verifyHash(address,string)": {
        "notice": "Verifies if the hash exists"
      }
    }
  }
}